:020000040800F2
:100000008010002041060008330200083502000875
:10001000390200083D02000841020008000000000B
:100020000000000000000000000000004502000881
:100030004702000800000000490200084B020008C7
:100040005B0600085B0600085B0600085B0600080C
:100050005B0600085B0600085B0600085B060008FC
:100060005B0600085B0600085B0600085B060008EC
:100070005B0600085B0600085B0600085B060008DC
:100080005B0600085B0600085B0600085B060008CC
:100090005B0600085B0600085B0600085B060008BC
:1000A0005B0600085B0600085B0600085B060008AC
:1000B0005B060008232100085B0600085B060008B9
:1000C0005B0600085B0600085B0600085B0600088C
:1000D0005B060008B70500085B0600085B06000821
:1000E0005B0600085B0600085B0600085B0600086C
:1000F0005B0600085B0600085B0600085B0600085C
:100100005B0600085B0600085B0600085B0600084B
:100110005B0600085B0600085B0600085B0600083B
:100120005B0600085B0600085B0600085B0600082B
:1001300000F002F800F03CF80AA090E8000C8244BD
:100140008344AAF10107DA4501D100F031F8AFF29A
:10015000090EBAE80F0013F0010F18BFFB1A43F0A5
:1001600001031847E481000004820000103A24BF14
:1001700078C878C1FAD8520724BF30C830C144BF0C
:1001800004680C607047000000230024002500264E
:10019000103A28BF78C1FBD8520728BF30C148BFEA
:1001A0000B6070471FB504F0B8FE1FBD10B510BD41
:1001B00004F0BAFF1146FFF7F5FF00F023F804F052
:1001C000D8FF03B4FFF7F2FF03BC00F099F9000079
:1001D0000B49D1F800C04A685CF8043B1068184429
:1001E00042F8040B8C4528BFA1F1DC0C8A4228BFE1
:1001F000A1F1DC02C1F800C04A6020F00040704765
:10020000140A00204FF4A06000F03AFA00F00EF952
:1002100001F036FF4FF4E13000F081F941F61F4163
:10022000092001F051FF03F037F801E002F000FA75
:10023000FCE7704700BFFEE700BFFEE700BFFEE738
:1002400000BFFEE770477047704770470CB500204D
:10025000019000906C48006840F480306A49086062
:1002600000BF6948006800F4003000900198401C0D
:100270000190009818B90198B0F5A06FF1D16248CB
:10028000006800F4003010B10120009001E000206F
:1002900000900098012843D15C48006840F01000AD
:1002A0005A4908600846006820F0030008600846C4
:1002B000006840F0020008605348406852494860B6
:1002C0000846406848600846406840F480604860DE
:1002D0000846406820F47C1048600846406840F4B6
:1002E000E81048600846006840F08070086000BF71
:1002F0004548006800F000700028F9D04248406886
:1003000020F00300404948600846406840F0020081
:10031000486000BF3C48406800F00C000828F9D154
:100320000CBD10B5FFF792FF10BD10B53648006840
:1003300040F00100344908600846406834490840EC
:100340003149486008460068324908402E49086033
:100350000846006820F4802008600846406820F4C1
:10036000FE0048604FF41F008860FFF7DAFF4FF08F
:1003700000602949086010BD10B50021002000224E
:10038000214B5B6803F00C0121B1042906D0082938
:1003900028D107E0214B224C236027E01F4B204C43
:1003A000236023E0184B5B6803F47010164B5B6806
:1003B00003F48032022303EB904022B9194B4343EC
:1003C000174C23600DE0104B5B6803F4003323B13E
:1003D000144B4343124C236003E0104B4343104C37
:1003E000236003E00D4B0E4C236000BF00BF064BA3
:1003F0005B68C3F303130C4CE15C094B1B68CB40F7
:10040000074C236010BD0000001002400020024095
:100410000000FFF8FFFFF6FE08ED00E000127A0092
:100420000400002000093D000800002010B56FF016
:10043000040000F074F92E4800682E49B0FBF1F07A
:100440002D4908700846007800EB4001C1EBC01050
:100450004FF6FF7101EAC0002849088010BD01462F
:10046000254A12784A434FF0E0235A6100229A61EC
:100470001A46126942F001021A6100BF4FF0E022F1
:10048000106900F001021AB100F48032002AF5D0A0
:100490004FF0E022126922F001024FF0E0231A61CE
:1004A00000229A6170470146144A12884A434FF06D
:1004B000E0235A6100229A611A46126942F0010251
:1004C0001A6100BF4FF0E022106900F001021AB17A
:1004D00000F48032002AF5D04FF0E022126922F0B9
:1004E00001024FF0E0231A6100229A617047000078
:1004F0000400002000127A00180000201A000020DA
:10050000014600BF704700BF494A128802F040020E
:10051000002AF9D0C2B2464B1B1D1A80704710B595
:1005200086B00446012144F2040000F033FC4FF48D
:100530000070ADF8140003208DF8160018208DF817
:10054000170005A93B4800F069F94FF48060ADF849
:10055000140004208DF8170005A9364800F05EF954
:1005600025208DF8000003208DF801008DF8020091
:1005700001208DF80300684600F087F80194002000
:10058000ADF80800ADF80A00ADF80C00ADF81000A9
:100590000C20ADF80E0001A9254800F0A2FC0122B4
:1005A00040F22551224800F034FD0121204800F09E
:1005B00024FD06B010BD10B540F225511C4800F0D6
:1005C0000DFE10B31A4800F089FDC4B21A48008825
:1005D00000F40040C8B91848008800F4804060B1B9
:1005E0000A2C03D000201449088020E0124800881B
:1005F00040F400401049088019E00D2C06D10E4847
:10060000008840F480400C49088010E00A480088C7
:10061000C0F30D0009490C5407480088401C0649E6
:10062000088008460088C72801DD0020088010BD2A
:100630000038014000080140200000207000002028
:100640000948804709480047FEE7FEE7FEE7FEE766
:10065000FEE7FEE7FEE7FEE7FEE7FEE704480549A2
:10066000054A064B704700002B03000831010008C3
:10067000800A002080100020800C0020800C0020C8
:1006800031490143314A1160704770B500210023A0
:100690000F22C47804B32D4C246804F4E064C4F53C
:1006A000E064210AC1F10403CA40447804FA03F16A
:1006B0008478144021430901254C0678A15504781B
:1006C00004F01F050124AC4005786D11AD0005F163
:1006D000E025C5F8004109E0047804F01F05012475
:1006E000AC401C4D0678761145F8264070BD1A4A7C
:1006F0000A400243154B1B1F1A60704739B1134A59
:10070000121D12680243114B1B1D1A6006E00F4AAE
:10071000121D126882430D4B1B1D1A60704704287E
:1007200008D14FF0E021096941F004014FF0E022C7
:10073000116107E04FF0E021096921F004014FF059
:10074000E0221161704700000000FA050CED00E0A6
:1007500000E400E080E100E080FFFF1F10B50446E8
:10076000CC48844208D10121042000F02DFB002157
:10077000042000F029FB46E0C748844208D101214B
:10078000082000F021FB0021082000F01DFB3AE0CA
:10079000C248844208D10121102000F015FB00213D
:1007A000102000F011FB2EE0BD48844208D1012149
:1007B000202000F009FB0021202000F005FB22E0B2
:1007C000B848844208D10121402000F0FDFA002100
:1007D000402000F0F9FA16E0B348844208D1012124
:1007E000802000F0F1FA0021802000F0EDFA0AE00C
:1007F000AE48844207D10121801500F0E5FA0021BE
:10080000A01500F0E1FA10BD10B50121084600F076
:10081000DBFA0021012000F0D7FA10BD2DE9F041EC
:10082000024600250026002000230024002791F81E
:1008300003C00CF00F0591F803C00CF0100CBCF1D4
:10084000000F03D091F802C04CEA050591F800C0F2
:10085000BCF1000F31D0146800202BE04FF0010CE8
:100860000CFA00F3B1F800C00CEA03069E4220D156
:1008700083004FF00F0C0CFA03F7BC4305FA03FC9E
:100880004CEA040491F803C0BCF1280F06D14FF0E4
:10089000010C0CFA00FCC2F814C00AE091F803C085
:1008A000BCF1480F05D14FF0010C0CFA00FCC2F866
:1008B00010C0401C0828D1D31460B1F800C0BCF1AE
:1008C000FF0F34DD546800202EE000F1080C4FF0DB
:1008D000010808FA0CF3B1F800C00CEA03069E42C6
:1008E00021D183004FF00F0C0CFA03F7BC4305FA3B
:1008F00003FC4CEA040491F803C0BCF1280F05D1B5
:1009000000F1080C08FA0CF8C2F8148091F803C042
:10091000BCF1480F07D100F1080C4FF0010808FAAC
:100920000CF8C2F81080401C0828CED35460BDE8F3
:10093000F0814FF6FF710180022181700421C170A6
:1009400070470246002093680B400BB1012000E085
:10095000002070470146886880B270470246002038
:10096000D3680B400BB1012000E000207047014626
:10097000C86880B2704701617047416170470AB131
:10098000016100E041617047C16070474FF48032FF
:100990000A4382618161826182698269704702468D
:1009A0000020434B18684FF68073184040EA02104D
:1009B00008433F4B186070473E49C8617047F0B527
:1009C0000A46002300240021002500F00046B6F16D
:1009D000004F02D1364EF16901E0354E7168C0F327
:1009E000034583B200F44016B6F5401F08D121F04C
:1009F00070612F4E766826F070662D4F7E6012E093
:100A000000F48016B6F5801F06D1032606FA05F419
:100A1000A14341F0706106E0460D360103FA06F687
:100A2000B14341F0706122B1460D360103FA06F67A
:100A3000314300F00046B6F1004F02D11C4EF16187
:100A400001E01B4E7160F0BD30B500228B071C0F1A
:100A50000F2303FA04F2164B08338C1053F824309A
:100A60009343134C08348D1044F8253023468C10E2
:100A700053F824308C07240F00FA04F423430C4C61
:100A800008348D1044F8253030BD0A49DC31086047
:100A90007047000000080140000C014000100140B8
:100AA0000014014000180140001C014000200140DA
:100AB0000000014000002042DF48006840F00100D3
:100AC000DD49086008464068DC490840DA4948606A
:100AD00008460068DA490840D749086008460068B7
:100AE00020F4802008600846406820F4FE0048603A
:100AF0004FF41F0088607047CF49096821F48031A6
:100B0000CD4A11601146096821F480211160B0F5C9
:100B1000803F03D0B0F5802F0ED106E0C6490968AA
:100B200041F48031C44A116007E0C349096841F4C7
:100B3000A021C14A116000E000BF00BF704710B59E
:100B400001460022002300204A11012A02D1BA4C9A
:100B5000236806E0022A02D1B74C236A01E0B64CB2
:100B6000636A01F01F02012494401C400CB1012073
:100B700000E0002010BD38B50020009000240025C2
:100B800000BF3120FFF7DBFF05460098401C0090B6
:100B90000098B0F5A06F01D0002DF2D03120FFF702
:100BA000CEFF08B1012400E00024204638BD0146F4
:100BB0000020A14A106820F0F80040EAC10010604F
:100BC0007047A04908607047024600209A4B586859
:100BD00020F47C1042EA01031843974B5860704799
:100BE00098490866704701460020934A506820F0F3
:100BF00003000843506070478F48406800F00C00C5
:100C00007047014600208C4A506820F0F0000843ED
:100C10005060704701460020874A506820F4E06029
:100C200008435060704701460020834A506820F412
:100C3000605040EAC1005060704729B17E4A527A44
:100C400002437D4B5A7204E07B4A527A82437A4BCC
:100C50005A7270477B49D8310860704701460020BE
:100C6000754A506820F440400843506070470021A6
:100C7000714A20321170704A82F82010012802D087
:100C800004280AD104E001216B4A2032117005E0EA
:100C90000521694A2032117000E000BF00BF704793
:100CA0006949086070476449096A0143624A1162F0
:100CB0007047654944390860704730B5002100220B
:100CC000002400235C4D6D6805F00C0121B104295E
:100CD00005D0082923D105E05C4D056022E05B4D7D
:100CE00005601FE0544D6D6805F47012524D6D683B
:100CF00005F48034022505EB92421CB9544D55434E
:100D000005600BE04C4D6D6805F400351DB1504D8C
:100D10005543056002E04D4D5543056002E04B4DE3
:100D2000056000BF00BF444D6D6805F0F001090982
:100D3000484D6B5C0568DD4045603F4D6D6805F4CE
:100D4000E061090A434D6B5C4568DD4085603A4DC2
:100D50006D6805F46051C90A3E4D6B5C4568DD4025
:100D6000C560354D6D6805F44041890B3A4D6B5CAB
:100D7000C568B5FBF3F5056130BD29B12E4A52694E
:100D800002432D4B5A6104E02B4A526982432A4B9D
:100D90005A61704729B1284A92690243264B9A61E9
:100DA00004E0254A92698243234B9A61704729B136
:100DB000214AD2690243204BDA6104E01E4AD2691B
:100DC00082431D4BDA61704729B11B4AD268024346
:100DD000194BDA6004E0184AD2688243164BDA6095
:100DE000704729B1144A12690243134B1A6104E097
:100DF000114A12698243104B1A61704712494039F7
:100E0000086070470F49C86470470B49C871704744
:100E10000948406A40F080700749486270470146BF
:100E20000020054A92680A400AB1012000E0002033
:100E30007047014988727047001002400000FFF8B7
:100E4000FFFFF6FE000042428004424200127A0098
:100E500000093D00220000203200002010B50446A9
:100E6000FB48844209D101218803FFF7ADFF00212F
:100E70004FF48040FFF7A8FF32E0F648844209D1E2
:100E800001214804FFF7ADFF00214FF40030FFF7C8
:100E9000A8FF25E0F048844209D101218804FFF72A
:100EA000A0FF00214FF48020FFF79BFF18E0EB48E4
:100EB000844209D10121C804FFF793FF00214FF4B8
:100EC0000020FFF78EFF0BE0E548844208D10121A6
:100ED0000805FFF786FF00214FF48010FFF781FF20
:100EE00010BD2DE9F04786B005460E460024A24607
:100EF00000BFA1460027B08900B100BF2F462C8A51
:100F00004CF6FF700440F08804432C82AC894EF606
:100F1000F3100440B08831890843718908430443C1
:100F2000AC81AC8A4FF6FF400440B0890443AC82E8
:100F300001A8FFF7C2FEC648874202D1DDF810A023
:100F400001E0DDF80CA0A88900F4004040B10AEBF4
:100F5000CA0000EB0A1031684900B0FBF1F807E065
:100F60000AEBCA0000EB0A1031688900B0FBF1F807
:100F70006420B8FBF0F004012009642101FB108912
:100F8000A88900F4004040B1322000EBC900B0FB5A
:100F9000F1F000F00700044308E0322000EB0910F4
:100FA0006421B0FBF1F000F00F0004432C8106B087
:100FB000BDE8F0874FF41651016000218180C180A7
:100FC00001810C21418100218181704710B50246C9
:100FD0000020108A4FF2FF0318400B884C882343EF
:100FE0008C882343CC8823431843108210BD0021F2
:100FF000018041808180C180704721B1828942F4A3
:101000000052828104E082894DF6FF731A4082818A
:101010007047F0B50346002400260025002040F666
:101020006A17B94200D100BF1846C1F3421401F05B
:101030001F06012707FA06F5012C01D10C3004E048
:10104000022C01D1103000E014301AB107682F4390
:10105000076002E00768AF430760F0BD1AB1838AFA
:101060000B43838202E0838A8B4383827047028A28
:101070004FF6F0731A400282028A0A4302827047D6
:1010800082894FF2FF731A40828182890A438281EA
:10109000704721B1828942F00202828104E0828994
:1010A0004FF6FD731A4082817047028A4FF6DF7354
:1010B0001A400282028A0A430282704721B1028AE0
:1010C00042F48042028204E0028A4BF6FF731A4027
:1010D00002827047C1F30802828070470146888807
:1010E000C0F308007047818941F001018181704798
:1010F000028BD2B20283028B42EA01220283704742
:10110000028B02F47F420283028B0A430283704700
:1011100021B1828A42F02002828204E0828A4FF664
:10112000DF731A408282704721B1828A42F0100236
:10113000828204E0828A4FF6EF731A4082827047FF
:1011400021B1828A42F00802828204E0828A4FF64C
:10115000F7731A408282704721B1828942F40042BB
:10116000828103E08289C2F30E028281704721B13D
:10117000828A42F40062828204E0828A4FF2FF7324
:101180001A4082827047828A4FF6FB731A4082822D
:10119000828A0A438282704721B1828A42F0020227
:1011A000828204E0828A4FF6FD731A408282704781
:1011B00002460020B1F5007F00D100BF13880B402C
:1011C0000BB1012000E00020704701F40072B2F57D
:1011D000007F00D100BFCA430280704770B502464D
:1011E000002400230025002040F66A16B14200D1F9
:1011F00000BFC1F3421501F01F03012606FA03F3F5
:10120000012D02D19689334006E0022D02D1168AC3
:10121000334001E0968A33400C12012606FA04F4AA
:101220001688344013B10CB1012000E0002070BDDD
:1012300010B50022002340F66A14A14200D100BF7D
:101240000A1201249440A3B2DC43048010BD0000C4
:10125000003801400044004000480040004C00407D
:101260000050004010B50446FE48844208D10121D8
:10127000C014FFF7A9FD0021E014FFF7A5FDC4E0AD
:10128000B4F1804F08D101210846FFF7AAFD0021E3
:101290000120FFF7A6FDB8E0F348844208D1012100
:1012A0000220FFF79EFD00210220FFF79AFDACE02F
:1012B000EE48844208D101210420FFF792FD00216D
:1012C0000420FFF78EFDA0E0E948844208D1012107
:1012D0000820FFF786FD00210820FFF782FD94E03B
:1012E000E448844208D101211020FFF77AFD002153
:1012F0001020FFF776FD88E0DF48844208D1012105
:101300002020FFF76EFD00212020FFF76AFD7CE022
:10131000DA48844208D101214014FFF755FD00212D
:101320006014FFF751FD70E0D548844209D10121D6
:10133000C804FFF749FD00214FF40020FFF744FDEA
:1013400063E0D048844209D101210805FFF73CFD44
:1013500000214FF48010FFF737FD56E0CA48844261
:1013600009D101214805FFF72FFD00214FF400109E
:10137000FFF72AFD49E0C548844208D101214020F9
:10138000FFF72FFD00214020FFF72BFD3DE0C04877
:10139000844208D101218020FFF723FD0021802015
:1013A000FFF71FFD31E0BB48844208D101218015C1
:1013B000FFF717FD0021A015FFF713FD25E0B64844
:1013C000844209D101210804FFF7FEFC00214FF4FB
:1013D0008030FFF7F9FC18E0B048844209D10121C0
:1013E0004804FFF7F1FC00214FF40030FFF7ECFC5C
:1013F0000BE0AB48844208D101218804FFF7E4FCEC
:1014000000214FF48020FFF7DFFC10BD002202888E
:10141000944B98420ED0994B98420BD0B0F1804F2C
:1014200008D0914B984205D0904B984202D0904BF7
:10143000984204D14FF68F731A404B881A438D4B54
:10144000984207D08C4B984204D04FF6FF431A4085
:10145000CB881A4302808B8883850B880385814B58
:1014600098420BD0854B984208D08B4B984205D0C0
:101470008A4B984202D08A4B984201D10B7A03865C
:1014800001238382704770B5002400220023058C5D
:101490004FF6FE7635400584028C8388048B4FF628
:1014A0008F752C40B51E2C400D882C43751E2A408C
:1014B0000D892A434D882A436A4DA8420BD06F4DAF
:1014C000A84208D0744DA84205D0744DA84202D05D
:1014D000734DA84213D14FF6F7752A404D892A4320
:1014E0004FF6FB752A408D882A434FF6FF652B4047
:1014F0004FF6FF552B408D892B43CD892B4383809D
:101500000483CD888586028470BD70B500240022D6
:101510000023058C4FF6EF7635400584028C8388D6
:10152000048B48F6FF752C404FF6FF452C400D8884
:101530004FF6FF7606EA05252C434FF6DF752A4065
:101540000D8906EA05152A434D8806EA05152A4342
:10155000444DA84202D0494DA8421DD14FF67F7597
:101560002A404D894FF6FF7606EA05152A434FF6C5
:10157000BF752A408D8806EA05152A434FF6FF35C8
:101580002B404FF2FF752B408D8906EA85052B43D2
:10159000CD8906EA85052B4383800483CD880587A2
:1015A000028470BD70B5002400220023058C4FF624
:1015B000FF6635400584028C8388848B4FF68F75D7
:1015C0002C404FF6FC752C400D882C434FF6FF55F0
:1015D0002A400D894FF6FF7606EA05252A434D88F5
:1015E00006EA05252A431F4DA84202D0234DA842F2
:1015F0001DD14FF2FF752A404D894FF6FF7606EA5E
:1016000005252A434FF6FF352A408D8806EA052531
:101610002A434EF6FF752B404DF6FF752B408D8902
:1016200006EA05152B43CD8906EA05152B43838071
:101630008483CD888587028470BD70B50022002325
:101640000024058C4EF6FF7635400584038C848893
:10165000828B48F6FF752A404FF6FF452A400D88D9
:1016600020E00000002C0140000400400008004081
:10167000000C004000100040001400400034014005
:10168000004C01400050014000540140001800404F
:10169000001C004000200040004001400044014088
:1016A000004801404FF6FF7606EA05252A434DF62D
:1016B000FF752B400D8906EA05352B434D8806EA58
:1016C00005352B43FA4DA84202D0FA4DA84208D165
:1016D0004BF6FF752C408D894FF6FF7606EA85158F
:1016E0002C4384808283CD88A0F84050038470BD51
:1016F000828B4FF2FF331A408283828B4FF6FF7347
:1017000003EA01231A4382837047F0B50C4615465D
:10171000002200210026078C4EF6FF7C07EA0C070A
:101720000784828B018C4FF6FF7707EA043640F678
:10173000FF473A404FF6FF7707EA05273A434FF64F
:10174000FF7707EA03373A43D94FB8420ED0D94F53
:10175000B8420BD0B0F1804F08D0D74FB84205D077
:10176000D64FB84202D0D64FB84206D14DF6FF77D9
:10177000394046F48057394305E047F6FF57394072
:1017800044F48057394382830184F0BD828B4FF645
:10179000F3731A408283828B0A4382837047F0B5C9
:1017A0000C461546002200210026078C4FF6FF6CE0
:1017B00007EA0C070784828B018C4FF6FF7707EA54
:1017C00004264FF60C773A404FF6FF7707EA0317E7
:1017D0002F433A43B64FB8420ED0B64FB8420BD063
:1017E000B0F1804F08D0B44FB84205D0B34FB842E3
:1017F00002D0B34FB84206D14FF6FF57394046F4F6
:101800008077394305E04FF2FF57394044F4807741
:10181000394382830184F0BD028B4FF2FF331A40BB
:101820000283028B4FF6FF7303EA01231A430283FC
:101830007047F0B50C461546002200210026078CA3
:101840004FF6EF7C07EA0C070784028B018C4FF6FA
:10185000FF7707EA041640F6FF473A404FF6FF7756
:1018600007EA03373A434FF6FF7707EA05273A437B
:101870008F4FB8420ED08F4FB8420BD0B0F1804F8F
:1018800008D08D4FB84205D08C4FB84202D08C4F53
:10189000B84206D14FF6DF77394046F0100739439A
:1018A00005E04FF65F77394044F010073943028373
:1018B0000184F0BD028B4FF6F3731A400283028B52
:1018C0000A4302837047F0B50C46154600220021FA
:1018D000068C4FF6FE773E400684028B018C4FF655
:1018E0000C7632407E1C06EA03162E433243704EBD
:1018F000B0420ED06F4EB0420BD0B0F1804F08D046
:101900006D4EB04205D06D4EB04202D06C4EB0422A
:1019100006D14FF6FD76314044F00106314305E033
:101920004FF6F576314044F00106314302830184DD
:10193000F0BD70B505460C465D4885420ED05D4849
:1019400085420BD0B5F1804F08D05B48854205D069
:101950005A48854202D05A48854200D100E000BF73
:10196000208850B92389A28861882846FFF7ABFFF9
:10197000E1882846FFF79EFF25E0208804280AD149
:101980002389A28861882846FFF753FFE18828460B
:10199000FFF742FF17E0208808280AD12389A28890
:1019A00061882846FFF7FBFEE1882846FFF7EEFE38
:1019B00009E02389A28861882846FFF7A6FEE1880E
:1019C0002846FFF795FE70BD2DE9F04105460C460F
:1019D00000260127608808B9022600E00026A088BA
:1019E000012801D1022700E001272088A0B923891E
:1019F000A28861882846FFF766FFE1882846FFF73E
:101A000059FF23893A4631462846FFF712FFE188FD
:101A10002846FFF701FF13E02389A2886188284642
:101A2000FFF707FFE1882846FFF7F6FE23893A46CD
:101A300031462846FFF747FFE1882846FFF73AFF7F
:101A4000BDE8F0810A884B881A438B881A43CB88FB
:101A50001A430B891A434B891A438B891A43A0F8FE
:101A6000442070474FF6FF71818000210180C180C2
:101A70004180017270470021018041808180C180D6
:101A8000018141818181C1817047002101804180B4
:101A9000012181800021C1800181704700210180E6
:101AA00041808180C1800181418181817047000036
:101AB000002C0140003401400004004000080040B8
:101AC000000C004021B1028842F00102028004E0D3
:101AD00002884FF6FE731A400280704731B1B0F8A9
:101AE000442042F40042A0F8442005E0B0F844202D
:101AF000C2F30E02A0F8442070471AB183890B4349
:101B0000838102E083898B438381704781827047A0
:101B100041EA0203A0F8483070471AB183890B43A9
:101B2000838102E083898B438381704701894FF66B
:101B3000F8721140018170470A46002101894FF671
:101B40008F73194011430181704730B504460D462B
:101B500029462046FFF7F0FF208940F0070020814A
:101B600030BD2DE9F04104460D4616461F46602D56
:101B700006D13B46012231462046FFF75AFE05E0DA
:101B80003B46012231462046FFF79DFE294620466E
:101B9000FFF7D2FF208940F007002081BDE8F081E7
:101BA00030B50C4600210189C9B24FF6FF7505EA30
:101BB0000325154325432943018130BD2DE9F0411B
:101BC00005460E4617469846002443463A46314697
:101BD0002846FFF7E5FF2C894FF6F870044044F0E3
:101BE00007044FF68F70044044F070042C81BDE868
:101BF000F081F0B504460D4616461F463B46324678
:101C000029462046FFF7CCFF208940F48040208100
:101C1000F0BD0185828270470A46002101884FF697
:101C20008F731940114301807047F0B50C4615467B
:101C30001E460021002200230189028B038C4FF6EF
:101C4000F877394021434FF6FC473A4040F20117FC
:101C50003A434FF6DD773B404FF6FF7707EA06172A
:101C60002F433B43018102830384F0BD0A460021D8
:101C7000018B4FF68F7319401143018370470A4659
:101C80000021018B48F6FF7319404FF6FF7303EAFA
:101C900002231943018370470A460021818B4FF6C6
:101CA0008F7319401143818370470A460021818B4D
:101CB00048F6FF7319404FF6FF7303EA02231943F6
:101CC0008183704721B1028842F08002028004E0E3
:101CD00002884FF67F731A400280704721B18288D4
:101CE00042F00402828004E082884FF6FB731A40BF
:101CF0008280704721B1828842F00802828004E02D
:101D000082884FF6F7731A408280704721B182882B
:101D100042F00102828004E082884FF6FE731A408E
:101D2000828070470A460021018B4FF6F7731940F5
:101D30001143018370470A460021018B4FF2FF7364
:101D400019404FF6FF7303EA0223194301837047DA
:101D50000A460021818B4FF6F773194011438183A6
:101D600070470A460021818B4FF2FF7319404FF6EE
:101D7000FF7303EA02231943818370470A46002157
:101D8000018B4FF6FB7319401143018370470A46DC
:101D90000021018B4FF6FF3319404FF6FF7303EA22
:101DA00002231943018370470A460021818B4FF6B5
:101DB000FB7319401143818370470A460021818BD0
:101DC0004FF6FF3319404FF6FF7303EA022319431E
:101DD000818370470A460021018B4FF67F731940BB
:101DE0001143018370470A460021018BC1F30E01A4
:101DF0004FF6FF7303EA02231943018370470A4633
:101E00000021818B4FF67F73194011438183704706
:101E10000A460021818BC1F30E014FF6FF7303EADE
:101E200002231943818370470A460021018C4FF633
:101E3000FD7319401143018470470A460021018C4B
:101E40004FF6F77319401143018470470A46002189
:101E5000018C4FF6DF7319404FF6FF7303EA02134C
:101E60001943018470470A460021018C4FF67F73A5
:101E700019404FF6FF7303EA0213194301847047B8
:101E80000A460021018C4FF6FF5319404FF6FF73AD
:101E900003EA02231943018470470A460021018C9A
:101EA0004FF2FF7319404FF6FF7303EA0223194301
:101EB000018470470A460021018C4DF6FF731940DA
:101EC0004FF6FF7303EA023319430184704730B5BC
:101ED000002301248C40A3B2048C9C430484048C12
:101EE00002FA01F5ADB22C43048430BD30B50023B5
:101EF00004248C40A3B2048C9C430484048C02FA16
:101F000001F5ADB22C43048430BD70B5034600200A
:101F100000241846183001258D40ACB21D8CA54315
:101F20001D8409B1082909D100EB6100056825F07D
:101F3000700505600568154305600EE00D1FC5F3CB
:101F40004E052844056825F4E045056005684FF610
:101F5000FF7606EA02263543056070BD21B102888E
:101F600042F00202028004E002884FF6FD731A403C
:101F70000280704721B1028842F00402028004E02E
:101F800002884FF6FB731A400280704721B18288A5
:101F900042F08002828004E082884FF67F731A400C
:101FA0008280704702884FF6F7731A4002800288D9
:101FB0000A430280704782884FF68F731A408280EE
:101FC00082880A438280704702894FF6F8731A406C
:101FD000028102890A430281704702894FF67F73AA
:101FE0001A40028102890A43028170478184704746
:101FF0008185704781867047018770478187704768
:10200000A0F84010704702884FF6FF431A40028044
:1020100002880A43028070470146888E7047014655
:10202000088F70470146888F70470146B1F840001D
:1020300070470146888C70470146088D70470246FC
:102040000020138A0B400BB1012000E000207047F4
:10205000CA430282704730B50246002000230024A4
:10206000158A05EA0103958905EA010413B10CB14B
:10207000012000E0002030BDCA430282704700000A
:1020800008B501210820FEF785FE4FF48070ADF8F9
:10209000000010208DF8030003208DF8020069462F
:1020A0000648FEF7BBFB0120054908606420FEF7E7
:1020B000FAF900200349C1F8A00108BD000C014055
:1020C000A0812142008021427FB505460C460121B6
:1020D0000220FEF76CFEADF80850ADF80440002079
:1020E000ADF80600ADF80A0001A91C48FFF78EF90B
:1020F000012211461948FFF700FD1D208DF8000050
:1021000001208DF8010003208DF8020001208DF8D8
:1021100003006846FEF7B9FA01211048FFF7D2FC28
:102120007FBD10B501210D48FFF795FF012810D1A3
:1021300000F046FE0A480088401C0949088008460D
:102140000088B0F57A7F04DB002008800120054973
:10215000087001210148FFF78FFF10BD0004004007
:1021600036000020000000202DE9F04FCFB03F20C6
:102170004D901F204C90002401254B904FF00109F9
:1021800000204A909FE001F08BF8002467E04D9812
:1021900004F005F8CDE90A01284604F000F8CDE97D
:1021A0000001204604F012F88246FE4AFE4B04F07D
:1021B00021F80746DDE9002303F06AFECDE90201BC
:1021C00003F0E6FCCDE906014B9803F0E8FFCDE90A
:1021D0000401DDE9062304F00DF8CDE90801DDE98D
:1021E0000A2303F0A5FDCDE90C0103F0A9FF2CA9FA
:1021F00041F824004C9803F0D2FFCDE90A012846AB
:1022000003F0CDFFCDE90201204603F0DFFF0746D2
:10221000E44AE54B03F0EEFFCDE90001DDE90223DE
:1022200003F036FECDE9040103F000FDCDE906011F
:102230004B9803F0B4FF8246DDE9062303F0DAFF92
:10224000CDE90801DDE90A2303F072FDCDE90C01B7
:1022500003F076FF0EA941F82400601CC4B2AC4222
:1022600095DB002417E0601CC6B20FE00EAF57F8F4
:1022700026302CAF57F826200EAF57F824102CAF7D
:1022800057F8240001F07DFB701CC6B2681EB042F6
:10229000ECDA601CC4B2A81EA042E4DA4D44142D4E
:1022A00000D00DB9C9F10009642000F092FD00F0E2
:1022B000FCFF4A98401C4A905A2804D100204A90BA
:1022C0004FB0BDE8F08F5EE72DE9F0438DB00746D3
:1022D0000C46154600BFC4EB041040003C2190FBA7
:1022E000F1F0C7EB071100EB4109484604F006FB8B
:1022F0008046012342461F213F2001F015FA1F228C
:10230000312101A801F022FADDE90101CDE90B013B
:102310001F213F20DDE90B2301F033FB05EB4500D6
:1023200040003C2190FBF1F004EB440100EB41093B
:10233000484604F0E3FA8046012342461F213F202D
:1023400001F0F2F91F222A2101A801F0FFF9DDE9CD
:102350000101CDE909011F213F20DDE9092301F039
:1023600010FB05EB4501480004F0C8FA8046012344
:1023700042461F213F2001F0D7F91F22232101A847
:1023800001F0E4F9DDE90101CDE907011F213F205A
:10239000DDE9072301F0F5FA002625E0C6EB06117A
:1023A000480004F0ABFA8046012342461F213F203B
:1023B00001F0BAF91F22222101A801F0C7F9DDE9D5
:1023C0000101CDE905011F22272101A801F0BEF975
:1023D000DDE90101CDE90301DDE90323DDE90501C3
:1023E00001F0CFFA701CC6B20C2ED7DB02221F21DF
:1023F0003F2001F0C6FC1E221F213F2001F008FCF7
:1024000000F053FF00F04CFF0DB0BDE8F0832DE964
:10241000F0410027002415E0002510E000260BE025
:10242000324629462046FFF74FFF7F1CB7F5487F0D
:1024300001DBBDE8F081761C3C2EF1DB6D1C3C2DF0
:10244000ECDB641C0C2CE7DB00BFF2E7F0B5ADF26F
:10245000044D00263C274FF4806101A802F0F4FDF2
:10246000022002F045FD002437E001A800EBC40083
:10247000C07988BBFDF7ACFE7F2190FBF1F201FB38
:10248000120000B201A921F83400FDF7A1FE0546B3
:10249000C01705EB90608011A5EB801000B201A978
:1024A00001EBC4014880002001A901EBC40188713F
:1024B000FDF78EFE0546C01705EB5070C010A5EB6A
:1024C000C000401C00B201A901EBC40188800120BA
:1024D00001A901EBC401C871641C802CC5DBA6E016
:1024E000384601F021FA012808D1761C07EB870055
:1024F000B6EB400F02DB0DF2044DF0BD002493E07B
:1025000001A800EBC400C07948BB002001A921F854
:102510003400FDF75DFE0546C01705EB90608011A5
:10252000A5EB801000B201A901EBC4014880FDF7C2
:102530004FFE062190FBF1F201FB1200401C00B29D
:1025400001A901EBC4018880002001A901EBC401AD
:102550008871012001A901EBC401C87163E001A8E1
:1025600000EBC4008079401C01A901EBC401887113
:1025700001A830F934007C2804DB002001A901EB1C
:10258000C401C871002002F089FB01AD05EBC40550
:10259000B5F9023001AD35F9342005EBC405B5F9C4
:1025A000021003E04AD8124DFB21194001AD35F964
:1025B000340001F0E6F9012002F070FB01A800EB05
:1025C000C400807901A901EBC401B1F9041088426B
:1025D0000CD1002001A901EBC401887101A830F8D9
:1025E0003400401C00B201A921F8340001A800EB1E
:1025F000C400B0F90400062191FBF0F001A931F903
:1026000034100844451E01AA02EBC402B2F902309C
:1026100001AA02EBC402B2F9021001AA32F9340095
:102620002A4601F0AEF9641C802CFFF669AF57E72B
:102630001FB500F035FE40208023FE4A00210090A7
:10264000084602F02BF800F030FE4FF47A7000F0EC
:10265000C0FB4FF47A7000F0BCFB4FF47A7000F0CE
:10266000B8FB00F01DFE012002F00EFBF2A20021DB
:10267000084602F0F6F900F018FE4FF47A7000F008
:10268000A8FB022002F000FBEBA20821002002F0D0
:10269000E8F900F00AFE4FF47A7000F09AFB03208C
:1026A00002F0F2FAE4A21821002002F0DAF900F0B8
:1026B000FCFD4FF47A7000F08CFB00F0F1FDE0A21D
:1026C0000021084602F080FA00F0EFFD4FF47A7026
:1026D00000F07FFBDDA20021022002F075FA00F07D
:1026E000E4FD4FF47A7000F074FB4FF47A7000F060
:1026F00070FB00F0D5FD002429E0002002F0C4FAB0
:10270000042322466021002002F0EDF9012002F0AE
:10271000BBFA042322461021002002F0E4F9022033
:1027200002F0B2FA042322461821002002F0DBF95D
:10273000032002F0A9FA042322462821002002F0F7
:10274000D2F900F0B2FD012000F043FB641CB4F5A7
:10275000967FD2DB4FF47A7000F03BFB00F0A0FDD7
:10276000002409E0234622462146C3A002F0F2FAE3
:10277000072000F02EFB641CFF2CF3DD4FF47A7071
:1027800000F027FB00F08CFD00240DE004EB84003A
:1027900042003F230021084601F0F3F800F085FDD8
:1027A000642000F016FB641C142CEFDB00240FE007
:1027B00004EB84008021A1EB40023F230021802014
:1027C00001F0DFF800F071FD642000F002FB641CF2
:1027D000142CEDDB4FF47A7000F0FBFA002538E0A2
:1027E0000DB900F05DFD00240FE06100C1F1400370
:1027F0008021A1EB84026000214601F0CDF900F0B8
:1028000054FD642000F0E5FAA41C1F2CEDDB0DB98B
:1028100000F046FD4FF4FA7000F0DBFA1F240FE0E1
:102820006100C1F140038021A1EB840260002146D8
:1028300001F0DAF900F039FD642000F0CAFAA41EB4
:10284000002CEDDC002002F029FA002002F02CFA26
:102850006D1C022DC4DB012002F020FA012002F0E1
:1028600023FA002540E00DB900F01AFD002413E022
:1028700008206100C1F14001CBB28021A1EB8401AD
:10288000CAB200906000214601F046FB00F00DFD49
:10289000642000F09EFAA41C192CE9DB0DB900F0AD
:1028A000FFFC4FF4FA7000F094FA192413E00820AA
:1028B0006100C1F14001CBB28021A1EB8401CAB219
:1028C00000906000214601F075FB00F0EEFC6420F2
:1028D00000F07FFAA41E022CE9DC002002F0DEF9F1
:1028E000002002F0E1F96D1C022DBCDB012002F09A
:1028F000D5F9012002F0D8F94FF47A7000F069FAA6
:1029000000F0CEFC1F233F221946104601F07BFB4E
:1029100000F0CBFC4FF47A7000F05BFA00F0C0FCE2
:102920001F23102219463F2001F06DFB00F0BDFC73
:102930004FF47A7000F04DFA00F0B2FC1F233F22F2
:102940001946104601F071FC00F0AFFC4FF47A70AC
:1029500000F03FFA00F0A4FC1F23102219463F208C
:1029600001F063FC00F0A1FC4FF47A7000F031FA42
:1029700000F096FC1E221F213F2001F049F900F0D3
:1029800094FC4FF47A7000F024FA00F089FC1E22C7
:102990001F213F2001F0F5F900F087FC4FF47A7019
:1029A00000F017FA00F07CFC32203C211E23642248
:1029B000CDE900100A21052001F085FD00F075FC2D
:1029C0004FF47A7000F005FA00F06AFC32203C21E6
:1029D0001E236422CDE900100A21052001F08FFD9D
:1029E00000F063FC4FF47A7000F0F3F900F058FC4B
:1029F00010200346264A00210090084601F04EFEB2
:102A000000F053FC4FF47A7000F0E3F92020034605
:102A1000204A00210090102001F040FE00F045FC0B
:102A20004FF47A7000F0D5F9402003461A4A00218D
:102A3000009033E0867D0008746573740000000028
:102A4000D2BBD6BBB3CCD0F2D4B50000D2BBD6BB80
:102A5000B3CCD0F2D4B5D2BBD6BBB3CCD0F2D4B5C4
:102A6000D2BBD6BBB3CCD0F2D4B5D2BBD6BBB3CCE1
:102A7000D0F2D4B5000000006E756D3A2564206375
:102A800068613A2563206865783A25780D0A000068
:102A9000667800088678000806790008302001F082
:102AA000FDFD00F002FC4FF47A7000F092F900F0A6
:102AB000F7FB00240BE000231E221F213F2000947F
:102AC00001F0CCF900F0F1FB00F0EAFB641CB4F576
:102AD000B87FF0DD1E221F213F2001F099F800F0A1
:102AE000E4FB4FF4FA7000F074F9002411E0224680
:102AF0001F213F2001F045F91E221F213F2001F038
:102B000087F800F0D2FB00F0CBFB642000F061F905
:102B1000641C0A2CEBDB002426E0204603F0EEFECA
:102B2000064600F0DBFD1F213F2000F0F9FD3D22AD
:102B30003F21684600F00AFEDDE90001CDE902010F
:102B40000522DDE9020101F01CF91E221F213F20B0
:102B500001F05EF80A221F213F2001F012F900F077
:102B6000A4FB00F09DFB641CB4F5347FD5DB00248E
:102B70002BE004F5347003F0C1FE064600F0AEFD14
:102B800004F13F001F2100F0CBFD04F13F013D2285
:102B9000684600F0DBFDDDE90001CDE90201052218
:102BA000DDE9020101F0EDF804F13F001E221F21D2
:102BB00001F02EF804F13F000A221F2101F0E1F894
:102BC00000F073FB00F06CFB641C5F2CD1DBFFF7A3
:102BD0003DFCFFF71CFCFFF7C7FA4FF47A7000F0DA
:102BE000F8F800F05DFB022002F04EF868A2102118
:102BF000082001F036FF00F058FB4FF47A7000F027
:102C0000E8F84FF47A7000F0E4F800F049FB28206F
:102C10008023624A0A210090002001F03FFD00F06D
:102C200044FB00BFFEE7ADF5587D0025012002F012
:102C30005FF9002407E0A01E00EB8000400096A989
:102C400041F82400641C422CF5DB00F029FB9DE0D8
:102C5000642D27D0FDF7BCFA0646C01706EB90702E
:102C60008010A6EB8000401C00B205EB45016A46CF
:102C700002EB41018880FDF7ABFA422190FBF1F2B3
:102C800001FB120496A830F8240000B205EB4501C0
:102C90002DF81100002005EB45016A4602EB4101C9
:102CA00048806D1C002468E004EB4400694601EB99
:102CB0004000408804EB44016A4602EB41018988E8
:102CC000084400B204EB440102EB4101488004EBEC
:102CD00044026B4603EB4202B2F90220511C04EBA2
:102CE00044023DF9120000F0B2FE04EB44026B46D0
:102CF00003EB4202B2F9021004EB44023DF9122048
:102D0000501C00F0A4FE04EB44026B4603EB4202AD
:102D1000B2F9021004EB44023DF9120000F097FEF4
:102D200004EB44026B4603EB4202B2F9021004EBDF
:102D300044023DF91220501E00F089FE04EB4402CB
:102D40006B4603EB4202B2F90220511E04EB44022F
:102D50003DF9120000F07BFE04EB4400694601EBF4
:102D60004000B0F902003F2806DD002004EB4401DA
:102D70006A4602EB41014880641CAC4294DB1E2091
:102D800000F027F800F091FA00F08AFA60E70000FE
:102D90002053686F7720456E64200000067B000892
:102DA00010B500F023F800F0ADF810BD10B50C48D8
:102DB00000F016F910BD10B50A4800F011F910BD69
:102DC0000948006820B108480068401E06490860AC
:102DD000704710B504462046FDF765FB10BD0000A6
:102DE00038010020380500203800002008B50121F6
:102DF0000420FDF7CFFF4FF4F870ADF8000010206D
:102E00008DF8030003208DF8020069468548FDF720
:102E100005FDB0218348FDF7AEFD40218148FDF757
:102E2000AAFD6420FDF73FFB40217E48FDF7A5FD8C
:102E3000C820FDF738FB40217A48FDF79CFD08BD0E
:102E400070B504460E4626B180217648FDF793FD05
:102E500003E080217348FDF790FD4FF480717148C5
:102E6000FDF78BFD002517E010216E48FDF785FD6D
:102E700004F0800020B120216A48FDF77CFD03E0CA
:102E800020216848FDF779FD10216648FDF773FDA4
:102E90006006040E681CC5B2082DE5DB4FF4807196
:102EA0006048FDF768FD80215E48FDF764FD70BD58
:102EB00010B5044600212046FFF7C2FF10BD10B533
:102EC000044601212046FFF7BBFF10BD70B500246A
:102ED00015E004F1B001C8B2FFF7EAFF0020FFF7E8
:102EE000E7FF1020FFF7E4FF002504E00020FFF7D4
:102EF000E6FF681CC5B2802DF8DB601CC4B2082C4C
:102F0000E7DB70BD10B5AE20FFF7D2FF2020FFF742
:102F1000CFFF1020FFF7CCFFB020FFF7C9FFC8207C
:102F2000FFF7C6FF0020FFF7C3FF1020FFF7C0FF29
:102F30004020FFF7BDFF8120FFF7BAFFFF20FFF71A
:102F4000B7FFA120FFF7B4FFA620FFF7B1FFA8202D
:102F5000FFF7AEFF3F20FFF7ABFFA420FFF7A8FF6E
:102F6000D320FFF7A5FF0020FFF7A2FFD520FFF732
:102F70009FFFF020FFF79CFFD920FFF799FF222049
:102F8000FFF796FFDA20FFF793FF1220FFF790FF7D
:102F9000DB20FFF78DFF2020FFF78AFF8D20FFF752
:102FA00087FF1420FFF784FFAF20FFF781FFFFF7B3
:102FB0008DFF10BD10B58D20FFF77AFF1420FFF7AD
:102FC00077FFAF20FFF774FF10BD10B58D20FFF71E
:102FD0006FFF1020FFF76CFFAE20FFF769FF10BDF9
:102FE0002DE9F04105462F46002416E004F1B0011A
:102FF000C8B2FFF75DFF0020FFF75AFF1020FFF770
:1030000057FF002605E017F8010BFFF758FF701C6B
:10301000C6B2802EF7DB601CC4B2082CE6DBBDE82C
:10302000F0810000000801400120984908707047B5
:10303000002096490870704794480078704710B592
:10304000044622464FF48061914801F0D3FF10BD41
:1030500010B54FF480618F4801F0D4FF10BD70B5FA
:10306000064636B1012E0BD0022E24D0032E3AD1C3
:1030700009E04FF480628749854801F076FF33E02C
:10308000FFF7E6FF30E0002412E000250DE0804865
:1030900000EBC410405D7F4901EBC411495D08435A
:1030A0007B4901EBC41148556D1C802DEFDB641C7E
:1030B000082CEADB18E0002412E000250DE074483B
:1030C00000EBC410405D734901EBC411495D8843B6
:1030D0006F4901EBC41148556D1C802DEFDB641C5A
:1030E000082CEADB00E000BF00BF70BD0246674865
:1030F000007820B1664800EBC210405C704765481C
:1031000000EBC210405CF9E7604B1B7823B1604BC9
:1031100003EBC0135A5403E05E4B03EBC0135A5445
:103120007047F0B514467F2801DC3F2900DDF0BD73
:10313000564A1278C2B3DCB1CD1701EB5575ED10CC
:10314000534E06EBC5152D5C0B46CE1701EB56769C
:10315000F610A1EBC6070126BE4035430A46CE173E
:1031600001EB5676F6104A4F07EBC616355454E07D
:10317000CD1701EB5575ED10454E06EBC5152D5CD1
:103180000B46CE1701EB5676F610A1EBC6070126CB
:10319000BE40B5430A46CE1701EB5676F6103C4FBB
:1031A00007EBC616355438E0FFE7DCB1CD1701EB6D
:1031B0005575ED10374E06EBC5152D5C0B46CE1739
:1031C00001EB5676F610A1EBC6070126BE4035434B
:1031D0000A46CE1701EB5676F6102E4F07EBC616B1
:1031E00035541AE0CD1701EB5575ED10294E06EB5D
:1031F000C5152D5C0B46CE1701EB5676F610A1EBEC
:10320000C6070126BE40B5430A46CE1701EB5676E7
:10321000F610204F07EBC616355400BF87E7F0B510
:1032200004467F2C01DC3F2901DD0020F0BD17485A
:10323000007898B10A46C81701EB5070C010144BC3
:1032400003EBC010005D0D46CB1701EB5373DB1091
:10325000A1EBC303184100F00100E7E70B46C817D4
:1032600001EB5070C0100B4F07EBC010005D0E4615
:10327000CF1701EB5777FF10A1EBC707384100F0DC
:103280000100D3E710B5FFF791FD10BD3C00002011
:10329000380100203805002010B5FFF781FD10BD72
:1032A00010B50020FFF7CBFE10BD10B5FFF7EAFF09
:1032B00010BD2DE9F04105460E46144601F0F7FC1D
:1032C00058B131462846FFF711FF40EA04073A4655
:1032D00031462846FFF718FF0AE031462846FFF737
:1032E00005FF20EA04073A4631462846FFF70CFF5F
:1032F000BDE8F0812DE9FF4F81B080460C4699462C
:1033000004EB0902511ECA1701EB5272D21020467B
:10331000E31704EB5373A2EBE3020092B8F1800FC2
:1033200001DC402C02DD05B0BDE8F08F47465DE0D2
:103330000098B8B925462646E11704EB5171C9102B
:10334000A4EBC103A9F10101DFF828C41CF80110A6
:103350009940CAB2E11704EB5171C8103946FFF722
:10336000A8FF42E025462646E11704EB5171C9103B
:10337000A4EBC101C1F10701FE4B595CA346E31761
:1033800004EB5373DB10A4EBC3039940CAB2E117FB
:1033900005EB5171C8103946FFF78BFF4FF0010A5A
:1033A0000BE02546E11704EB51710AEBE100FF2227
:1033B0003946FFF77EFF0AF1010A00988245F0DBEB
:1033C000A9F101010D19E91705EB5171C910A5EB20
:1033D000C101E84B5A5C2646E11704EB5171CB1052
:1033E000009958183946FFF764FF7F1C0398404442
:1033F000B84201DD802F9BDB00BF94E72DE9F05F31
:1034000082460C461746E219511ECA1701EB52724A
:10341000D2102046E31704EB5373A2EBE309B9F192
:10342000000F16D125462646E11704EB5171C9104D
:10343000A4EBC103791EDFF83CC31CF801109940CE
:10344000CAB2E11704EB5171C8105146FFF731FFC2
:103450003FE025462646E11704EB5171C910A4EB65
:10346000C101C1F10701C34B595CA346E31704EB4B
:103470005373DB10A4EBC3039940CAB2E11705EB09
:103480005171C8105146FFF714FF4FF001080BE0CF
:103490002546E11704EB517108EBE100FF2251468C
:1034A000FFF707FF08F10108C845F1DB791E0D1988
:1034B000E91705EB5171C910A5EBC101AD4B5A5C81
:1034C0002646E11704EB517109EBE1005146FFF785
:1034D000F0FEBDE8F09F2DE9F84F0446A146A24654
:1034E000A54850444FEA500A54462146484603F046
:1034F0000FF92146009003F09DF8834603F06EF823
:10350000074600229D4B02F075FE054602F0DEFBE9
:1035100004462046BDE8F88F30B503460BB90020BD
:1035200030BD00219A0F9B00012A01D9491C521A73
:103530000F240DE04900920002EB93720D4601202A
:1035400000EB45059B00AA4201D3521B491C641E97
:10355000002CEFD10846E3E72DE9FF4F8BB09246F0
:103560009B46DDE91889DBF800100C98081A4043E7
:10357000DAF800200B99521ADAF80030591A02FBD7
:1035800001000A900A9803F0B9F90890FFF7A3FF29
:10359000099003F023F804460D46DBF800200C994F
:1035A000501A02F0FCFDCDE90801DAF800200B9971
:1035B000501A02F0F4FDCDE90601DDE9082302F01E
:1035C00027FA06460F461A98002842D042464B4634
:1035D0003046394602F0ACFBCDE9000102F0D8FAE2
:1035E00022462B46CDE9020102F004FECDE9060198
:1035F0000B9802F0D4FDCDE90401DDE9062302F0C9
:1036000097FBCDE9080102F09BFDCAF80000424695
:103610004B463046394602F08BFBCDE9000102F003
:1036200005FB22462B46CDE9020102F0E3FDCDE980
:1036300006010C9802F0B3FDCDE90401DDE9062393
:1036400002F076FBCDE9080102F07AFDCBF800002C
:1036500041E042464B463046394602F0D5FECDE9C0
:10366000000102F095FA22462B46CDE9020102F054
:10367000C1FDCDE906010B9802F091FDCDE90401F1
:10368000DDE9062302F054FBCDE9080102F058FD04
:10369000CAF8000042464B463046394602F0B4FEB6
:1036A000CDE9000102F0C2FA22462B46CDE9020123
:1036B00002F0A0FDCDE906010C9802F070FDCDE905
:1036C0000401DDE9062302F033FBCDE9080102F035
:1036D00037FDCBF800000FB0BDE8F08F2DE9F047C3
:1036E00082460021504603F0D5F802D10020014661
:1036F0000CE0504602F072FF8046214A214B02F056
:1037000079FD06460022204B02F0C2FB044602F07F
:10371000DDFA1E498860BDE8F0871C49C860704723
:103720001A4A1060516070472DE9F04106460F4675
:1037300014461D4639463046FFF7F2FF2846FFF78C
:10374000ECFF2046FFF7CAFFBDE8F0812DE9F0410C
:1037500088B004460D461646059504960B498868C0
:1037600002F03CFF07460948C068084ACDE90071ED
:1037700002900DE05000002062CF763F0000E03F55
:103780006E861BF0F9210940008066404000002051
:10379000516804AB106805AAFFF7DEFE0598069095
:1037A00004980790DDE90601C4E9000108B0BDE80E
:1037B000F08170B506460C46154621463046FFF7A7
:1037C0002EFDA8420BD10CB9002070BD601EC1B205
:1037D0002A463046FFF7EDFF401CC0B2F5E7002057
:1037E000F3E770B506460C46154621463046FFF70E
:1037F00016FDA8420CD13F2C01D1002070BD601CE9
:10380000C1B22A463046FFF7D4FF401CC0B2F5E7EC
:103810000020F3E72DE9F04104460D4616461F4609
:10382000FFF743FD29462046FFF7F9FCB04220D1BF
:103830003A4629462046FFF774FC611EC8B23B4653
:1038400032462946FFF7E6FF611CC8B23B463246C6
:103850002946FFF7DFFF681CC1B23B4632462046CF
:10386000FFF7D8FF681EC1B23B4632462046FFF73D
:10387000D1FFBDE8F0812DE9F0470746884615469F
:103880009A464FF0000900263C4615E0EAB2E0B245
:103890004146FFF7A6FF8146EAB2E0B24146FFF794
:1038A00088FF064609EB0602A8EB060153462046B0
:1038B000FFF7A4FD601C04B241462046FFF7AFFCB1
:1038C000A84201D1802CE1DB7C1E15E0EAB2E0B217
:1038D0004146FFF786FF8146EAB2E0B24146FFF774
:1038E00068FF064609EB0602A8EB06015346204690
:1038F000FFF784FD601E04B241462046FFF78FFCAF
:10390000A84201D1002CE1DCBDE8F087014608782F
:10391000704710B50246012000E050430B1EA1F194
:103920000104E1B2F9D110BD10B5044608480068A1
:1039300058B9FFF7BAFCFFF7B3FC4FF47A7090FB6D
:10394000F4F003490860012010BD0020FCE70000EE
:1039500038000020FE4A1060FE4A116070470CB526
:10396000FB4909680091FB4909680191DDE90012F2
:10397000C0E900120CBDF64800687047F5480068C1
:1039800070472DE9FF4F85B081464FF0000AD346BE
:103990000798A0EB090506990898461A1FFA89F0BE
:1039A0000390069880B20290002D01DD012705E00A
:1039B0000DB9002702E04FF0FF376D42002E02DD07
:1039C0004FF0010806E016B94FF0000802E04FF092
:1039D000FF387642B54201DD2C4600E03446002037
:1039E00004901DE001F05DF902460190DDE902104E
:1039F000FFF797FBAA44B344A24505DDAAEB040AEE
:103A00000398384480B20390A34505DDABEB040B6B
:103A10000298404480B202900498401C80B2049006
:103A2000611C04988842DDDD09B0BDE8F08F70B5F7
:103A300005460C4623462A46C6480168C448006825
:103A4000FFF79FFFC2480560C248046070BD70B5B3
:103A500004460D4601F025F9064632462946204621
:103A6000FFF75FFB70BD70B504460D462946204642
:103A7000FFF7D5FB08B1012070BD0020FCE72DE960
:103A8000F04704460F46164604EB060801F009F914
:103A90008146002C01DA002000E02046054605E0C2
:103AA0004A4639462846FFF73CFB6D1CB8F1800FAB
:103AB00001DA404600E08020A842F1DCBDE8F08752
:103AC0002DE9F04707460C46164604EB060801F0C0
:103AD000E8F88146002C01DA002000E02046054687
:103AE00005E04A4629463846FFF71BFB6D1CB8F136
:103AF000400F01DA404600E04020A842F1DCBDE87A
:103B0000F08770B504460E460025D4E90001FFF7A2
:103B100021FF012507E004EBC50254F83500516888
:103B2000FFF785FF6D1CB542F5DB70BD2DE9F04157
:103B300004460D4616461F462B4632462946204669
:103B4000FFF71FFF3B46324639462046FFF719FF75
:103B50003B46224629462046FFF713FF3B463246A6
:103B600029463046FFF70DFFBDE8F0812DE9F04111
:103B700004460D4616461F463B4632462946204619
:103B8000FFF7D4FF781B431E301B421E691C601CCC
:103B9000FFF7B0FBBDE8F0812DE9F04104460D468A
:103BA00016461F46A019421E2B4629462046FFF7FF
:103BB000E8FEE819431EA019421EE819411E2046DE
:103BC000FFF7DFFEE819431E224629462046FFF78D
:103BD000D8FEE9194B1EA1194A1EA119481E2946F3
:103BE000FFF7CFFEBDE8F0812DE9F04104460D4618
:103BF00016461F463B46324629462046FFF7CCFF75
:103C00007B1E721E691C601CFFF774FBBDE8F0810F
:103C10002DE9F04706460F46904600240FFA88F536
:103C20000320A0EB48000FFA80F952E001F039F8C8
:103C30008246791930195246FFF773FA01F031F8CC
:103C400082467919301B5246FFF76BFA01F029F8CA
:103C500082463919701B5246FFF763FA01F021F8CA
:103C60008246391B701B5246FFF75BFA01F019F8C8
:103C70008246791B301B5246FFF753FA01F011F8C8
:103C80008246791B30195246FFF74BFA01F009F8CA
:103C90008246391B70195246FFF743FA01F001F8CA
:103CA0008246391970195246FFF73BFA601C04B27C
:103CB000B9F1000F05DAA000801D48440FFA80F921
:103CC00007E0601B80000A3048440FFA80F9681E44
:103CD00005B2AC42AADDBDE8F0872DE9FE4F0646ED
:103CE0000F4690469A46DDF83090C8F1010B01204E
:103CF00002904FEA4800404201900024454600F0FF
:103D0000D0FF009039E0BBF1000F05DB6D1E01987C
:103D1000801C019001988344641C0298801C0290CE
:103D2000029883440AF0010078B16B005B1C4B449D
:103D3000DAB2791B3019FFF7C3FE63005B1C4B44FA
:103D4000DAB2391B7019FFF7BBFE0AF0020003E07C
:103D5000580000205C00002078B16B005B1C4B44D5
:103D6000DAB2791B301BFFF7ABFE63005B1C4B44E0
:103D7000DAB2391B701BFFF7A3FEAC42C3DBBDE810
:103D8000FE8FF8B506460D4614466000401CC2B2D0
:103D9000291B3046FFF794FE0020E2B20323294698
:103DA00000903046FFF799FFF8BD2DE9FC5F06460D
:103DB0000F4691469846C9F1010A4FF0010B4FEAB0
:103DC00049004042019000244D4600F06AFF0090F7
:103DD00040E0BAF1000F05DB6D1E0198801C0190D8
:103DE00001988244641C0BF1020BDA4408F00400D1
:103DF00048B179193019009AFFF793F939197019F8
:103E0000009AFFF78EF908F0020048B1791B3019CB
:103E1000009AFFF786F9391B7019009AFFF781F9AC
:103E200008F0080048B13919701B009AFFF779F9BA
:103E30007919301B009AFFF774F908F0010048B1B6
:103E4000391B701B009AFFF76CF9791B301B009A25
:103E5000FFF767F9AC42BCDBBDE8FC9F2DE9F047FA
:103E600086B005460E4614461F46DDF838804FF0F2
:103E700000096846FFF773FDDDE90001CDE90201A5
:103E800031462846FFF74CFC0020FFF746FCB8F50A
:103E9000B47F01DD4FF4B4780020FFF71FFC321926
:103EA00029466846FFF752FCDDE90001CDE904012F
:103EB000DDE90401FFF74EFD384602F01FFD8146A3
:103EC00014E04846FFF70AFC321929466846FFF716
:103ED0003DFCDDE90001CDE90401DDE90401FFF766
:103EE000A6FDFE49484602F0A5FB8146404602F089
:103EF00005FD8246494602F098FDE2D32819314675
:103F0000FFF795FDDDE90201FFF724FD06B0BDE8EE
:103F1000F08710B5029C10BD2DE9F04105460E4614
:103F200017469846069C022101FB1471CAB2281953
:103F30003146FFF7A4FD022303FB1473DAB206EB4C
:103F40000803591E2819FFF79AFD022000FB148070
:103F5000C2B231192846FFF7B3FD022303FB1483D5
:103F6000DAB23119EB19581EFFF7AAFD31192819D9
:103F700001232246FFF719FF3119EA19121B501EBF
:103F800002232246FFF711FF06EB0802121B511E07
:103F9000EA19121B501E04232246FFF706FF06EB08
:103FA0000802121B511E281908232246FFF7FDFEA6
:103FB000BDE8F0812DE9F84305460E4617469846C0
:103FC000089C022101FB1472281943463146FFF771
:103FD0000BFE022000FB1480401E3119EA19121B4F
:103FE0000090501E01232246FFF777FE022000FBBF
:103FF0001480401E31190090281902232246FFF731
:104000006CFEBDE8F8832DE9FF4F99B006460F46D8
:1040100098461B9800FB00F908FB08FA4FEA490094
:1040200017904FEA4A00169000254446002015904C
:1040300017986043149000F034FE391913907019EA
:10404000139AFFF76EF800F02CFE39191390701BCD
:10405000139AFFF766F800F024FE391B13907019CD
:10406000139AFFF75EF800F01CFE391B1390701BCB
:10407000139AFFF756F8484602F091F80022984B41
:10408000CDE90C0102F0B6F8CDE9100109FB18A04A
:1040900002F085F8CDE90E01DDE9102301F048FEBC
:1040A000CDE9120102F04CF8834636E06D1CDDE9E3
:1040B000150108441590BBF1000F03DA1598504420
:1040C00083440AE0641E17991498401A14901598B6
:1040D0000AEB00011498081A834400F0E2FD391934
:1040E00013907019139AFFF71CF800F0DAFD3919D4
:1040F0001390701B139AFFF714F800F0D2FD391BD0
:1041000013907019139AFFF70CF800F0CAFD391BD1
:104110001390701B139AFFF704F8DDE9141088421E
:10412000C4DB09FB0AF002F03AF8CDE91001611E88
:1041300001FB09F1621E01FB02F002F030F8CDE94B
:104140000C01284602F02BF80022664BCDE9040151
:1041500001F0EEFDCDE90801284602F020F800222A
:10416000604BCDE9000101F0E3FDCDE904015046CB
:1041700002F015F8CDE90201DDE9042302F03AF876
:10418000CDE90601DDE9082302F034F8CDE90A01A2
:10419000DDE90C2301F0CCFDCDE90E01DDE91023B2
:1041A00002F032F9CDE9120101F0CAFF834637E08F
:1041B000641E17991498401A1490BBF1000F04DD87
:1041C0001498A9EB000083440AE06D1CDDE9150199
:1041D000084415901498A9EB0001159808448344ED
:1041E00000F05FFD391913907019139AFEF799FFCB
:1041F00000F057FD39191390701B139AFEF791FFC9
:1042000000F04FFD391B13907019139AFEF789FFC8
:1042100000F047FD391B1390701B139AFEF781FFC6
:10422000002CC5DC1DB0BDE8F08F2DE9FF4F85B037
:10423000824616461F46B3460BFB06FB4FEA4B0B66
:104240000397039F07FB07F0039003984000039038
:10425000354600244FF00108A8EB0608A8EB060835
:1042600008FB07F808FB07F8B14609FB06F9002030
:1042700004900398029002987043029000200190ED
:104280003CE0631CDAB2069B191B0AEB0500FFF742
:1042900017FC631CDAB2069B191BAAEB0500FFF79B
:1042A0000FFC611CCAB20AEB05000699FFF708FC77
:1042B000611CCAB2AAEB05000699FFF701FC641C59
:1042C000019858440190049848440490D94402212C
:1042D000049801FB0080002810DD05E00000A040EC
:1042E0000000D03F0000E03F6D1EDDE90201401AF2
:1042F000029004984044049003988044DDE9011042
:104300008842BEDA00253C46B84608FB07F84FF065
:104310000109A9EB0709A9EB070909FB06F909FB44
:1043200006F9002004900290CDF804B0DDF804B046
:104330000BFB07F0019036E0631CDAB2069B191BF9
:104340000AEB0500FFF7BCFB631CDAB2069B191BE6
:10435000AAEB0500FFF7B4FB611CCAB20AEB05002B
:104360000699FFF7ADFB611CCAB2AAEB05000699DE
:10437000FFF7A6FB6D1CDDE90201084402900498DA
:1043800040440490039880440221049801FB00906B
:10439000002808DD641E0198A0EB0B000190049832
:1043A00048440490D944DDE901108842C4DD09B0D5
:1043B000BDE8F08F2DE9FE4F06460F46144698469D
:1043C000A01B002801DB014600E041420D46A8EB9E
:1043D0000700002801DB014600E04142894609F060
:1043E000010AC5F10100800000FB09F000FB09FB98
:1043F0000AF10100800068436843029002980BEBC9
:1044000000010AFB05F000FB05100190A64201DD4A
:1044100026462C44474500DD474609F1010000EBE4
:10442000D07107EB6107A7EB0A08E80045434FEAA4
:10443000C90000FB09FA00BF39462046FFF707FB19
:1044400039463046FFF703FB41463046FFF7FFFA97
:1044500041462046FFF7FBFA019840000090009883
:10446000584507DB761C641E0BEB0A018B4601984E
:104470000844019002990098884208DC7F1CA8F14A
:104480000108029841190291019808440190A6423E
:10449000D2DD12E0701E3946FFF7D9FA39467F1C8B
:1044A000601CFFF7D4FA701E4146FFF7D0FA414670
:1044B000A8F10108601CFFF7CAFAA7EB08004845FD
:1044C000E8DBBDE8FE8F2DE9F04704460D461646B1
:1044D0001F46DDE908893B46324629462046FFF75C
:1044E00050FA4B46424639463046FFF74AFA2B46C9
:1044F000224649464046FFF744FABDE8F0872DE9D9
:10450000F04F8DB08046894615461C46DDE916AB56
:1045100000200490039000F0C4FB029000F0C7FB61
:10452000019000F0BBFBA14509DD4C44A4EB090957
:10453000A4EB09044544A5EB0808A5EB08055C4578
:1045400009DD5C44A4EB0B0BA4EB0B045544A5EB79
:104550000A0AA5EB0A05A14509DD4C44A4EB0909AB
:10456000A4EB09044544A5EB0808A5EB0805D945CB
:1045700019D146463746B54201DA2E4602E0BD4221
:1045800000DD2F46B24501DA564602E0BA4500DDAD
:104590005746B81B401CC2B249463046FFF76FFA77
:1045A0000DB0BDE8F08FA5EB08000A90A4EB090060
:1045B0000990AAEB08000890ABEB09000790AAEB62
:1045C00005000690ABEB04000590002004900390DA
:1045D0005C4501D10B9401E0601E0B90CDF830904A
:1045E00022E00999049890FBF1F000EB0806079986
:1045F000039890FBF1F000EB08070A99049808442F
:1046000004900899039808440390BE4202DD3744A1
:10461000BE1BBF1BB81B401CC2B230460C99FFF733
:104620002EFA0C98401C0C90DDE90B108842D8DD66
:104630000C98001B0699484304900C98A0EB0900C5
:1046400008994843039021E0DDE9040190FBF1F073
:1046500046190799039890FBF1F000EB08070699BB
:104660000498084404900899039808440390BE42B3
:1046700002DD3744BE1BBF1BB81B401CC2B2304614
:104680000C99FFF7FCF90C98401C0C900C985845BD
:10469000DADD029800F002FB00BF81E72DE9FF4F51
:1046A00083B0054688469946DDF840B0B8F1000170
:1046B00001DB0A4600E04A421046D21700EB527274
:1046C000D210A0EBC20A40464FEAE87108EB5171E4
:1046D000C910029158464FEAEB710BEB5171C910AA
:1046E000019105EB0900002808DB7F2D06DC08EBB3
:1046F0000B00002802DBB8F13F0F02DD07B0BDE878
:10470000F08FB8F1000F04DA0298401E0290CAF14F
:10471000080A4FEAEB710BEB5171C910ABEBC10109
:1047200011B10198401C01900027B9E00298C61908
:10473000072E00DDB8E016F1020F78DD0024AAE0B4
:1047400060197F2800DDA9E0601900286EDB002ECB
:104750004ADB00F0A6FA012816D129193046FEF7E7
:10476000C5FC0090059907FB09110819FFF7CEF861
:1047700000FA0AF000990843C0B2009029193046A7
:10478000009AFEF7C1FC2FE000F08BFAA8B92919B6
:104790003046FEF7ABFC0090059907FB091108199C
:1047A000FFF7B4F800FA0AF100988843009029193D
:1047B0003046009AFEF7A8FC16E029193046FEF7AD
:1047C00095FC0090059907FB09110819FFF79EF861
:1047D00000FA0AF000994840C0B20090291930460A
:1047E000009AFEF791FC00BFBAF1000F52D0072EDD
:1047F00050DA16F1020F4DDD00F053FA012817D1FF
:104800002919701CFEF772FC0090059907FB09112D
:104810000819FFF77BF8CAF108010841009908431D
:1048200000902919701C009AFEF76EFC32E036E009
:1048300000F037FAB8B92919701CFEF757FC009040
:10484000059907FB09110819FFF760F8CAF108017B
:1048500040FA01F10098884300902919701C009AD1
:10486000FEF752FC16E02919701CFEF73FFC009081
:10487000059907FB09110819FFF748F8CAF1080163
:1048800008410099484000902919701C009AFEF7D1
:104890003BFC00BF641C4C45FFF652AF00BF7F1CC1
:1048A00001988742FFF642AF00BF00BF26E72DE91F
:1048B000F84F06460F4691469846DDF828A008F1C5
:1048C0000700C11700EB5171C910009106EB0800F9
:1048D000002807DB7F2E05DC07EB0A00002801DB40
:1048E0003F2F01DDBDE8F88F00251DE0002418E012
:1048F000E11704EB5171CA10009905FB01915018A2
:10490000FFF704F804F0070201219140084038B194
:1049100000F0C7F98346791930195A46FEF701FCB1
:10492000641C4445E4DB6D1C5545DFDB00BFD9E763
:104930002DE9F04F85B080460D46164600F0A7F9E8
:10494000074600F0AEF9019000F09BF90390019941
:104950000398884201D0012000E0002004903FBB72
:10496000B8F1060F01DC782D02DD05B0BDE8F08F4F
:10497000A6F12000C6B2002408E004EB0610BC4BF0
:104980001A5C29194046FEF7BFFB641C082CF4DBB7
:1049900000240AE004EB06100830B54B1A5C291914
:1049A00008F10100FEF7B0FB641C082CF2DB56E0B6
:1049B000B8F1800F0DDA402D0BDA052000FB0780DF
:1049C000401E002805D4082000FB0750401E002888
:1049D00000D5CAE7002440E0052C02D14FF00009C1
:1049E00007E006EB8601A34A11440819FEF78EFF83
:1049F00081464FF0000A2CE009F0010008B101984F
:104A000000E003980090009808B90498E8B14FF0CE
:104A1000000B18E0002002900EE00AFB0753029AF8
:104A2000991804FB078202EB0B00009AFEF779FB52
:104A30000298401CC0B202900298B842EDDB0BF124
:104A4000010000F0FF0BBB45E4DB4FEA69090AF106
:104A5000010ABAF1080FCFDB641C062CBCDB00BFD7
:104A600083E72DE9F04706460F461546002406F079
:104A7000FF0907F0FF0A00F00AF98046B8F1000FBD
:104A800010D10BE02A5D39463046FFF751FF083759
:104A9000782F01DD0027B61C601CC4B2285D0028F9
:104AA000F0D11EE01AE0285D0A2809D1082000FB99
:104AB00008A000F0FF0A06F0FF09601CC4B20DE078
:104AC0002A5D51464846FFF733FF08EB480009EBE3
:104AD000400000F0FF09601CC4B200BF285D002840
:104AE000E1D1BDE8F0872DE9F05F074688469146A1
:104AF0001D464FF0000B00F0CAF88246BAF1000FD5
:104B00002ED1002429E0281B401EC1B20A20FEF746
:104B100000FFB9FBF0F00A21B0FBF1F201FB120635
:104B2000BBF1000F0DD1681EA0420ADD3EB908207E
:104B300000FB048120223846FFF7FAFE0BE04FF01D
:104B4000010B06F13000C2B2082000FB0481384698
:104B5000FFF7EEFE00BF601CC4B2AC42D3DB31E015
:104B600000242DE0281B401EC1B20A20FEF7D1FE12
:104B7000B9FBF0F00A21B0FBF1F201FB1206BBF128
:104B8000000F0FD1681EA0420CDD4EB90AEB4A019E
:104B9000490001FB047030224146FFF7C9FE0DE0D9
:104BA0004FF0010B06F13001CAB20AEB4A0149008D
:104BB00001FB04704146FFF7BBFE00BF601CC4B29E
:104BC000AC42CFDBBDE8F09F2DE9F04705460E462D
:104BD0001746072D01DC702E01DDBDE8F08741E0AE
:104BE0004FF000083AE008EB0810234911F81000D4
:104BF000397888422ED108EB08101F4901EB40009C
:104C000040787978884225D1002417E0102C01D112
:104C1000681CC5B2A146E01704EB10700011A4EBAC
:104C20000010811908EB0810134B03EB4000801CA7
:104C3000025D2846FEF768FA601CC4B2202CE5DB52
:104C400006F11000C6B2681EC5B2702E02DDA81CA7
:104C5000C5B2002608F1010000F0FF08B8F1080F06
:104C6000C1DBBF1C38780028BAD100BFB5E700000F
:104C700066710008666C00085677000805490870E0
:104C8000704704480078704703490870704702482D
:104C9000007870476000002061000020054908701E
:104CA000704704480078704703490870704702480D
:104CB0000078704762000020630000208849087077
:104CC0007047884A1060884A1160704710B50246E4
:104CD000012000E050430B1EA1F10101FAD110BDEB
:104CE00070B50446FFF7D3FF05460A2C08D17E486D
:104CF000006808307C49086000207A4908601DE09F
:104D00000D2C1BD00120FFF7BFFF2246764801681B
:104D100074480068FFF70CFE2846FFF7B5FF71489E
:104D20000068801D6F4908606D48007830B1084602
:104D300000687A2802DD0A20FFF7D2FF70BD10B5A7
:104D4000044603E014F8010BFFF7CAFF207800289F
:104D5000F8D110BD0FB42DE9F8434FF0000900263B
:104D600009A80090A5E0089800780A2870D00D28BE
:104D70006FD025286ED10898401C089008980078BC
:104D8000632876D0642804D0732865D0782879D138
:104D900029E0009880C800903D46002404E0601C93
:104DA000C4B20A2095FBF0F5002DF8D126443D460B
:104DB00016E0611E0A20FFF789FFB5FBF0F000F056
:104DC000FF08611E0A20FFF781FFB5FBF0F100FB31
:104DD000115508F13001C8B2FFF782FF601EC4B25E
:104DE000002CE6D14FE0009880C800903D4600249A
:104DF00006E0601CC4B22846E91705EB11710D11DD
:104E0000002DF6D126443D461FE0611E1020FFF71D
:104E10005DFFB5FBF0F000F0FF08611E1020FFF70A
:104E200055FFB5FBF0F100FB1155B8F1090F05DC9A
:104E300008F13001C8B2FFF753FF04E008F1570151
:104E4000C8B2FFF74DFF601EC4B2002CDDD11AE0DE
:104E50001BE01FE023E00CE0009850F8049B00905A
:104E60004846FFF76CFF484600F060F806440AE049
:104E700008E0009911F8042BD0B20091FFF730FF41
:104E8000761C00E000BF00BF0FE00A20FFF728FFFC
:104E9000761C0AE00D20FFF723FF761C05E0089939
:104EA0000878FFF71DFF761C00BF00BF0898401C64
:104EB00008900898007800287FF455AF0A480068E9
:104EC00008303F2802DB00200749086000200090DE
:104ED000FEF7EBF93046BDE8F8035DF814FB00007F
:104EE0006C00002064000020680000207047000073
:104EF0000B4910B5A1F17C020A4CC2E937123721E7
:104F000006E000EB104342F82130074B00FB034062
:104F10000B1EA1F10101F4DC10BD0120E8E7000047
:104F2000B4090020E119D666CD0D010010B5431C6F
:104F300002E010F8011B71B18107FAD14FF0013284
:104F400002C88C1A8C4314EAC211F9D0C01A0A069E
:104F500003D0C01E10BDC01A10BD0A0401D0801EAF
:104F600010BD0902FCD0401E10BD032A40F2308063
:104F700010F0030C00F0158011F8013BBCF1020F9A
:104F8000624498BF11F801CB00F8013B38BF11F81B
:104F9000013BA2F1040298BF00F801CB38BF00F832
:104FA000013B11F0030300F08580083AC0F008804F
:104FB00051F8043B083A51F804CBA0E80810F5E793
:104FC000121D5CBF51F8043B40F8043BAFF3008076
:104FD000D20724BF11F8013B11F801CB48BF11F8EB
:104FE000012B24BF00F8013B00F801CB48BF00F8BB
:104FF000012B704702F0FF0343EA032242EA024218
:1050000000F002B84FF000020429C0F0128010F046
:10501000030C00F01B80CCF1040CBCF1020F18BF94
:1050200000F8012BA8BF20F8022BA1EB0C0100F027
:105030000DB85FEAC17C24BF00F8012B00F8012BFA
:1050400048BF00F8012B70474FF0000200B513462F
:1050500094469646203922BFA0E80C50A0E80C5098
:10506000B1F12001BFF4F7AF090728BFA0E80C5049
:1050700048BF0CC05DF804EB890028BF40F8042B42
:1050800008BF704748BF20F8022B11F0804F18BFAF
:1050900000F8012B7047704770477047704710B594
:1050A00000F03AF8006810BD10B5044600F034F87E
:1050B000046010BD10B5203AC0F00B80B1E8185064
:1050C000203AA0E81850B1E81850A0E81850BFF4F2
:1050D000F5AF5FEA027C24BFB1E81850A0E8185091
:1050E00044BF18C918C0BDE810405FEA827C24BFE5
:1050F00051F8043B40F8043B08BF7047D20728BF73
:1051000031F8023B48BF11F8012B28BF20F8023BC1
:1051100048BF00F8012B7047004870471C0A002068
:10512000004870471C0A00207546FFF7F9FFAE469D
:1051300005006946534620F00700854618B020B5A3
:10514000FBF78CFABDE820404FF000064FF0000757
:105150004FF000084FF0000B21F00701AC46ACE81F
:10516000C009ACE8C009ACE8C009ACE8C0098D468C
:10517000704710B50446AFF300802046BDE81040EC
:10518000FBF71FB8490050EAC12018BF04204A0DA0
:1051900018BF40F0010040F2FF72B2EB515F08BF50
:1051A00040F00200012808BF052070472DE9F74FA5
:1051B000144694B00021C4E902111599079121F019
:1051C0000045C9498D4206DC1599C4E9000117B0B4
:1051D0000020BDE8F08FC549DFF814A3A9423CDDEB
:1051E0000799C44E0029C44FC44A1599534619DD86
:1051F00001F00AF9554506D0C14AC24B01F004F945
:10520000C4E900010AE04FF0D352BE4B01F0FCF8B4
:1052100032463B4601F0F8F8C4E9000117B001201E
:10522000BDE8F08F00F084FD554506D0B44AB54B7B
:1052300000F07EFDC4E900010AE04FF0D352B14B0B
:1052400000F076FD32463B4600F072FDC4E90001F5
:1052500017B04FF0FF30BDE8F08FAB49A942159968
:1052600078DB21F0004183468846A84AA84B00F02D
:10527000C1FF0022A74B00F05BFD00F061FF099029
:1052800000F08DFF06460F469C4A534600F0B2FFE1
:1052900043465A4601F0ACF880468A46984A994BF4
:1052A0003046394600F0A6FF2A0D01250B924246F2
:1052B000534601F09DF8032DC4E9000139D00B9845
:1052C000C1F30A51401A05EB45111139814230DA18
:1052D0009148C346784400EB0510CDF80CA00C9023
:1052E000D0E900233046394600F084FF02460B46E1
:1052F000049106905846039901F086F880468A4644
:1053000002460B465846039901F07EF8049B069A24
:1053100001F07AF883460C9803913946D0E90223CC
:10532000304600F067FF5A46039B01F06DF86D1C94
:10533000BDE707980028A2BF099817B0BDE8F08F15
:10534000616881F000416160099817B04042BDE892
:10535000F08FFFE784461598C1F31301C0F30A509C
:10536000A0F2F5304FEA601800F01F06C6F12000E9
:10537000139000200690079041F4801E05206D4692
:1053800076B1664A08EB00017A4452F8213002EB0C
:105390008101B3404A68139922FA01F1194305E0EB
:1053A0005F4908EB0002794451F82210A1FB0E2757
:1053B000A1FB0C131A449A4234BF0123002303EBD0
:1053C000070A05EB8003D3E901B70F448F4234BFCE
:1053D0000121002193448B4411B1934502D903E08C
:1053E000934501D2012100E00021C3E901B75144F6
:1053F00045F82010011EA0F10100C1DC0298059FB4
:1054000000F10050800F12900298DDE903568000F1
:1054100000F0C5FE834628460D9100F0D7FE6FF0E0
:105420001D0201F0DAFBCDE90E01304600F0CEFEA0
:105430006FF03D0201F0D1FB80468A46384600F00D
:10544000C5FE6FF05D0201F0C8FB074642465346B9
:10545000119100F06DFCDDE90E2300F069FC5A4665
:105460000D9B00F065FC00250E465A4628460D9B14
:1054700000F0CAFFDDE90E2300F0C6FF42465346A6
:1054800000F0C2FF3A46119B00F0B2FFDFF898A08F
:10549000244A534600F0AEFE07468846234A244B72
:1054A0003146284600F0A6FE3A46434600F040FC4E
:1054B000074688464FF0A84253463146284600F03A
:1054C00099FE3A46434600F033FC159A12F0004F1D
:1054D00004D0129A81F0004152421292C4E90001B4
:1054E000129817B0BDE8F08FFB21E93F7CD902404C
:1054F000FB21F93F7370032E8A19A33B000040542F
:105500003163621A61B4D03DFB21394183C8C96D52
:10551000305FE43F0000E03F802F0000FC2E0000E1
:10552000DE2E0000182D4454FB21F93D3326A61130
:10553000460B113C2DE9FF4D21F0004807460C4673
:10554000B8F1795F08DA00F0FBFD002801BF002008
:10555000324904B0BDE8F08D3A462346104619465C
:1055600000F048FE054602462D480E460B46062131
:10557000784400F05DF82A46334600F03BFEDDE952
:10558000022382468B463846214600F033FE04460D
:105590000F4652465B462846314600F02BFE224617
:1055A0003B4600F031FF07468A464FF0FF3228465F
:1055B000314601F012FB1B4A90450ADA3A4653463F
:1055C00000F022FF04B00022BDE8F04D134B00F0C4
:1055D0000FBF154A4245A8BFA8F500154FF00004BB
:1055E000B8BF124D22462B4600F00EFF06468846F5
:1055F00022462B460020094900F006FF04460D46CE
:105600003A4653463046414600F0FEFE04B022467C
:105610002B46BDE8F04D00F0EBBE00000000F03F6F
:10562000AC2C00003333D33F0000E93F0000D23FF1
:105630002DE9F0414F1E00EBC7010446D1E90001FE
:1056400015461E4637F006020DD02A46334600F0B6
:10565000D1FD7F1E04EBC703D3E9002300F068FBF4
:1056600037F00602F1D1022F25D0042F13D0062FD8
:1056700018BFBDE8F0812A46334600F0BBFDD4E9EF
:105680000A2300F055FB2A46334600F0B3FDD4E967
:10569000082300F04DFB2A46334600F0ABFDD4E969
:1056A000062300F045FB2A46334600F0A3FDD4E96B
:1056B000042300F03DFB2A46334600F09BFDD4E96D
:1056C000022300F035FB2A46334600F093FDD4E96F
:1056D0000023BDE8F04100F02BBB00002DE9FF4D99
:1056E000054621F0004084B00C46B0F1795F0BDA3A
:1056F0002846FFF747FD042808BF00F071F8284648
:1057000008B02146BDE8F08D2A460B46104600F051
:1057100071FD06460F462A46234600F06BFD804683
:1057200026488A4632463B4605217844FFF780FFEB
:1057300083461098029160B3214A224B404651465D
:1057400000F058FDCDE900015A4640465146029B03
:1057500000F050FD82468846DDE906014FF0FF3239
:1057600001F03BFA5246434600F04EFE32463B46BD
:1057700000F040FDDDE9062300F046FEDDE90023F0
:1057800000F042FE08B02A462346BDE8F04D00F086
:105790002FBE0B465A463046394600F02BFD084ACC
:1057A000084B00F0C5FA4246534600F023FD08B00E
:1057B0002A462346BDE8F04D00F0BABAF22B0000AD
:1057C000495555555555C5BF012201F006BA00F09F
:1057D000AFBA002213461046114600F059BB000034
:1057E000024A0020110701F0F8B9000001FDFFFF97
:1057F0002DE9F84F04460D4621F000400091734911
:10580000814211DC7249884201DC06D12CB120466C
:105810002946BDE8F84FFFF7D7BF6E48002DCCBF33
:105820006D496E49BDE8F88F6D49814211DD6D49C2
:105830008142D8BF4FF0FF366DDD20462946FFF785
:10584000A1FC042808BFFFF7CBFF20462946BDE88E
:10585000F88F6549654F25F00045814233DD644985
:10586000814219DD002632464FF08043204629460A
:1058700000F05EFA80468A4601222046294601F061
:10588000ACF900223B4600F0BFFD4246534600F013
:10589000FFFA04460D463EE001260022BA463B468A
:1058A0002046294600F044FA80460F46002253461F
:1058B0002046294600F0A8FD42463B4600F0E8FAA3
:1058C00004460D4627E04B4981421BDDDFF828A145
:1058D0000226002253462046294600F08BFC002277
:1058E0003B4600F025FA80460F46002253462046EC
:1058F000294600F089FD42463B4600F0C9FA0446BD
:105900000D4608E0032622462B4600203B4900F0C6
:10591000BFFA04460D4622462B461046194600F0B3
:1059200069FC8B46824602460B4600F063FC074644
:105930000246334888460B4606217844FFF778FE36
:1059400052465B4600F056FC82462E488B463A464D
:10595000434605217844FFF76BFE3A46434600F084
:1059600049FC02460B46002E504659460CDA00F020
:10597000DFF922462B4600F03DFC01B022462B46C3
:10598000BDE8F04F00F034BD00F0D2F922462B46BE
:1059900000F030FC1C4A7A4402EBC603D3E9002332
:1059A00000F032FD22462B4600F02EFD174A7A44C5
:1059B00002EBC603D3E9002300F01AFD009A002A87
:1059C000B8BF81F00041BDE8F88F0000000010442E
:1059D0000000F07F182D4454FB21F93FFB21F9BF53
:1059E0000000DC3F0000203E0000F33F0000F03FDD
:1059F0000000E63F008003400000F83F0000F0BFD9
:105A0000B2280000702800000E280000D6270000F1
:105A10002DE9F04D9446CCF1000423F000464CEA09
:105A20000404524F46EAD4749A46884621F0004254
:105A3000BC4206D8454240EA050442EAD474BC425E
:105A400004D9BDE8F04D6246FFF7C1BEAAF140554A
:105A5000A5F17F6555EA0C040BD0022404EAAA7470
:105A6000434DDFF810E144EAD87452EA000B04D049
:105A70000CE0BDE8F04DFFF7BBBE002C14BF012CBD
:105A8000BDE8F08D022C30D0032C32D056EA0C0B3E
:105A90000AD0BE4220D1BA4209D126F0804622F077
:105AA00080423346114617E000291ADB25E0DFF873
:105AB000C8B0FB44002C04BFDBE90001BDE8F08D59
:105AC000012C02BFDBE9000181F00041BDE8F08D4F
:105AD000022C0AD0032C0CD0BA4212D1B8F1000F1C
